{"abi":[{"type":"constructor","inputs":[],"stateMutability":"payable"},{"type":"receive","stateMutability":"payable"},{"type":"function","name":"deposit","inputs":[],"outputs":[],"stateMutability":"payable"},{"type":"function","name":"depositors","inputs":[{"name":"","type":"address","internalType":"address"}],"outputs":[{"name":"","type":"uint256","internalType":"uint256"}],"stateMutability":"view"},{"type":"function","name":"getBalance","inputs":[],"outputs":[{"name":"","type":"uint256","internalType":"uint256"}],"stateMutability":"view"},{"type":"function","name":"top3Depositors","inputs":[{"name":"","type":"uint256","internalType":"uint256"}],"outputs":[{"name":"","type":"address","internalType":"address"}],"stateMutability":"view"},{"type":"function","name":"withdraw","inputs":[],"outputs":[],"stateMutability":"nonpayable"},{"type":"event","name":"Deposit","inputs":[{"name":"user","type":"address","indexed":true,"internalType":"address"},{"name":"amount","type":"uint256","indexed":false,"internalType":"uint256"}],"anonymous":false},{"type":"event","name":"Withdrawal","inputs":[{"name":"user","type":"address","indexed":true,"internalType":"address"},{"name":"amount","type":"uint256","indexed":false,"internalType":"uint256"}],"anonymous":false}],"bytecode":{"object":"0x60806040523360015f6101000a81548173ffffffffffffffffffffffffffffffffffffffff021916908373ffffffffffffffffffffffffffffffffffffffff160217905550610768806100515f395ff3fe60806040526004361061004d575f3560e01c806312065fe0146100605780633ccfd60b1461008a578063d0e25467146100a0578063d0e30db0146100dc578063eed75f6d146100e65761005c565b3661005c5761005a610122565b005b5f5ffd5b34801561006b575f5ffd5b50610074610206565b6040516100819190610404565b60405180910390f35b348015610095575f5ffd5b5061009e61020d565b005b3480156100ab575f5ffd5b506100c660048036038101906100c1919061044b565b61039a565b6040516100d391906104b5565b60405180910390f35b6100e46103ce565b005b3480156100f1575f5ffd5b5061010c600480360381019061010791906104f8565b6103d8565b6040516101199190610404565b60405180910390f35b5f3411610164576040517f08c379a000000000000000000000000000000000000000000000000000000000815260040161015b906105a3565b60405180910390fd5b345f5f3373ffffffffffffffffffffffffffffffffffffffff1673ffffffffffffffffffffffffffffffffffffffff1681526020019081526020015f205f8282546101af91906105ee565b925050819055503373ffffffffffffffffffffffffffffffffffffffff167fe1fffcc4923d04b559f4d29a8bfc6cda04eb5b0d3c460751c2402c5c5cc9109c346040516101fc9190610404565b60405180910390a2565b5f47905090565b60015f9054906101000a900473ffffffffffffffffffffffffffffffffffffffff1673ffffffffffffffffffffffffffffffffffffffff163373ffffffffffffffffffffffffffffffffffffffff161461029c576040517f08c379a00000000000000000000000000000000000000000000000000000000081526004016102939061066b565b60405180910390fd5b5f4790505f3373ffffffffffffffffffffffffffffffffffffffff16826040516102c5906106b6565b5f6040518083038185875af1925050503d805f81146102ff576040519150601f19603f3d011682016040523d82523d5f602084013e610304565b606091505b5050905080610348576040517f08c379a000000000000000000000000000000000000000000000000000000000815260040161033f90610714565b60405180910390fd5b3373ffffffffffffffffffffffffffffffffffffffff167f7fcf532c15f0a6db0bd6d0e038bea71d30d808c7d98cb3bf7268a95bf5081b658360405161038e9190610404565b60405180910390a25050565b600281600381106103a9575f80fd5b015f915054906101000a900473ffffffffffffffffffffffffffffffffffffffff1681565b6103d6610122565b565b5f602052805f5260405f205f915090505481565b5f819050919050565b6103fe816103ec565b82525050565b5f6020820190506104175f8301846103f5565b92915050565b5f5ffd5b61042a816103ec565b8114610434575f5ffd5b50565b5f8135905061044581610421565b92915050565b5f602082840312156104605761045f61041d565b5b5f61046d84828501610437565b91505092915050565b5f73ffffffffffffffffffffffffffffffffffffffff82169050919050565b5f61049f82610476565b9050919050565b6104af81610495565b82525050565b5f6020820190506104c85f8301846104a6565b92915050565b6104d781610495565b81146104e1575f5ffd5b50565b5f813590506104f2816104ce565b92915050565b5f6020828403121561050d5761050c61041d565b5b5f61051a848285016104e4565b91505092915050565b5f82825260208201905092915050565b7f4465706f73697420616d6f756e74206d7573742067726561746572207468616e5f8201527f2030000000000000000000000000000000000000000000000000000000000000602082015250565b5f61058d602283610523565b915061059882610533565b604082019050919050565b5f6020820190508181035f8301526105ba81610581565b9050919050565b7f4e487b71000000000000000000000000000000000000000000000000000000005f52601160045260245ffd5b5f6105f8826103ec565b9150610603836103ec565b925082820190508082111561061b5761061a6105c1565b5b92915050565b7f596f7520617265206e6f7420746865206f776e657200000000000000000000005f82015250565b5f610655601583610523565b915061066082610621565b602082019050919050565b5f6020820190508181035f83015261068281610649565b9050919050565b5f81905092915050565b50565b5f6106a15f83610689565b91506106ac82610693565b5f82019050919050565b5f6106c082610696565b9150819050919050565b7f5769746864726177206661696c656400000000000000000000000000000000005f82015250565b5f6106fe600f83610523565b9150610709826106ca565b602082019050919050565b5f6020820190508181035f83015261072b816106f2565b905091905056fea26469706673582212205d653d087d0883be6cd46fcfeab0907bf1686c6ca67f8c7a39539af8500e8ad964736f6c634300081e0033","linkReferences":{}},"methodIdentifiers":{"deposit()":"d0e30db0","depositors(address)":"eed75f6d","getBalance()":"12065fe0","top3Depositors(uint256)":"d0e25467","withdraw()":"3ccfd60b"},"id":0}