{"abi":[{"type":"constructor","inputs":[],"stateMutability":"nonpayable"},{"type":"receive","stateMutability":"payable"},{"type":"function","name":"adminWithdraw","inputs":[{"name":"bank","type":"address","internalType":"contract IBank"}],"outputs":[],"stateMutability":"nonpayable"},{"type":"function","name":"getOwner","inputs":[],"outputs":[{"name":"","type":"address","internalType":"address"}],"stateMutability":"view"}],"bytecode":{"object":"0x6080604052348015600e575f5ffd5b50335f5f6101000a81548173ffffffffffffffffffffffffffffffffffffffff021916908373ffffffffffffffffffffffffffffffffffffffff16021790555061030c8061005b5f395ff3fe60806040526004361061002c575f3560e01c8063893d20e814610037578063a28835b61461006157610033565b3661003357005b5f5ffd5b348015610042575f5ffd5b5061004b610089565b60405161005891906101db565b60405180910390f35b34801561006c575f5ffd5b5061008760048036038101906100829190610233565b6100b0565b005b5f5f5f9054906101000a900473ffffffffffffffffffffffffffffffffffffffff16905090565b5f5f9054906101000a900473ffffffffffffffffffffffffffffffffffffffff1673ffffffffffffffffffffffffffffffffffffffff163373ffffffffffffffffffffffffffffffffffffffff161461013e576040517f08c379a0000000000000000000000000000000000000000000000000000000008152600401610135906102b8565b60405180910390fd5b8073ffffffffffffffffffffffffffffffffffffffff16633ccfd60b6040518163ffffffff1660e01b81526004015f604051808303815f87803b158015610183575f5ffd5b505af1158015610195573d5f5f3e3d5ffd5b5050505050565b5f73ffffffffffffffffffffffffffffffffffffffff82169050919050565b5f6101c58261019c565b9050919050565b6101d5816101bb565b82525050565b5f6020820190506101ee5f8301846101cc565b92915050565b5f5ffd5b5f610202826101bb565b9050919050565b610212816101f8565b811461021c575f5ffd5b50565b5f8135905061022d81610209565b92915050565b5f60208284031215610248576102476101f4565b5b5f6102558482850161021f565b91505092915050565b5f82825260208201905092915050565b7f41646d696e3a20596f7520617265206e6f7420746865206f776e6572000000005f82015250565b5f6102a2601c8361025e565b91506102ad8261026e565b602082019050919050565b5f6020820190508181035f8301526102cf81610296565b905091905056fea2646970667358221220eb5f6f7fa80855ed23b66abf20a2ba2408ba76f26e680a48c2eebc229f6df5ae64736f6c634300081e0033","linkReferences":{}},"methodIdentifiers":{"adminWithdraw(address)":"a28835b6","getOwner()":"893d20e8"},"id":0}