{"abi":[{"type":"receive","stateMutability":"payable"},{"type":"function","name":"MIN_DEPOSIT","inputs":[],"outputs":[{"name":"","type":"uint256","internalType":"uint256"}],"stateMutability":"view"},{"type":"function","name":"deposit","inputs":[],"outputs":[],"stateMutability":"payable"},{"type":"function","name":"depositors","inputs":[{"name":"","type":"address","internalType":"address"}],"outputs":[{"name":"","type":"uint256","internalType":"uint256"}],"stateMutability":"view"},{"type":"function","name":"getAdmin","inputs":[],"outputs":[{"name":"","type":"address","internalType":"address"}],"stateMutability":"view"},{"type":"function","name":"getBalance","inputs":[],"outputs":[{"name":"","type":"uint256","internalType":"uint256"}],"stateMutability":"view"},{"type":"function","name":"top3Depositors","inputs":[{"name":"","type":"uint256","internalType":"uint256"}],"outputs":[{"name":"","type":"address","internalType":"address"}],"stateMutability":"view"},{"type":"function","name":"transferAdmin","inputs":[{"name":"newAdmin","type":"address","internalType":"address"}],"outputs":[],"stateMutability":"nonpayable"},{"type":"function","name":"withdraw","inputs":[],"outputs":[],"stateMutability":"nonpayable"},{"type":"event","name":"AdminTransferred","inputs":[{"name":"previousAdmin","type":"address","indexed":true,"internalType":"address"},{"name":"newAdmin","type":"address","indexed":true,"internalType":"address"}],"anonymous":false},{"type":"event","name":"Deposit","inputs":[{"name":"user","type":"address","indexed":true,"internalType":"address"},{"name":"amount","type":"uint256","indexed":false,"internalType":"uint256"}],"anonymous":false},{"type":"event","name":"Withdrawal","inputs":[{"name":"user","type":"address","indexed":true,"internalType":"address"},{"name":"amount","type":"uint256","indexed":false,"internalType":"uint256"}],"anonymous":false}],"bytecode":{"object":"0x6080604052348015600e575f5ffd5b503360015f6101000a81548173ffffffffffffffffffffffffffffffffffffffff021916908373ffffffffffffffffffffffffffffffffffffffff160217905550610cad8061005c5f395ff3fe60806040526004361061007e575f3560e01c8063d0e254671161004d578063d0e254671461016c578063d0e30db0146101a8578063e1e158a5146101b2578063eed75f6d146101dc576100d6565b806312065fe0146100da5780633ccfd60b146101045780636e9960c31461011a57806375829def14610144576100d6565b366100d65766038d7ea4c6800034116100cc576040517f08c379a00000000000000000000000000000000000000000000000000000000081526004016100c39061082d565b60405180910390fd5b6100d4610218565b005b5f5ffd5b3480156100e5575f5ffd5b506100ee6102fc565b6040516100fb9190610863565b60405180910390f35b34801561010f575f5ffd5b50610118610303565b005b348015610125575f5ffd5b5061012e610490565b60405161013b91906108bb565b60405180910390f35b34801561014f575f5ffd5b5061016a60048036038101906101659190610902565b6104b8565b005b348015610177575f5ffd5b50610192600480360381019061018d9190610957565b610707565b60405161019f91906108bb565b60405180910390f35b6101b061073b565b005b3480156101bd575f5ffd5b506101c661078e565b6040516101d39190610863565b60405180910390f35b3480156101e7575f5ffd5b5061020260048036038101906101fd9190610902565b610799565b60405161020f9190610863565b60405180910390f35b5f341161025a576040517f08c379a0000000000000000000000000000000000000000000000000000000008152600401610251906109f2565b60405180910390fd5b345f5f3373ffffffffffffffffffffffffffffffffffffffff1673ffffffffffffffffffffffffffffffffffffffff1681526020019081526020015f205f8282546102a59190610a3d565b925050819055503373ffffffffffffffffffffffffffffffffffffffff167fe1fffcc4923d04b559f4d29a8bfc6cda04eb5b0d3c460751c2402c5c5cc9109c346040516102f29190610863565b60405180910390a2565b5f47905090565b60015f9054906101000a900473ffffffffffffffffffffffffffffffffffffffff1673ffffffffffffffffffffffffffffffffffffffff163373ffffffffffffffffffffffffffffffffffffffff1614610392576040517f08c379a000000000000000000000000000000000000000000000000000000000815260040161038990610aba565b60405180910390fd5b5f4790505f3373ffffffffffffffffffffffffffffffffffffffff16826040516103bb90610b05565b5f6040518083038185875af1925050503d805f81146103f5576040519150601f19603f3d011682016040523d82523d5f602084013e6103fa565b606091505b505090508061043e576040517f08c379a000000000000000000000000000000000000000000000000000000000815260040161043590610b63565b60405180910390fd5b3373ffffffffffffffffffffffffffffffffffffffff167f7fcf532c15f0a6db0bd6d0e038bea71d30d808c7d98cb3bf7268a95bf5081b65836040516104849190610863565b60405180910390a25050565b5f60015f9054906101000a900473ffffffffffffffffffffffffffffffffffffffff16905090565b60015f9054906101000a900473ffffffffffffffffffffffffffffffffffffffff1673ffffffffffffffffffffffffffffffffffffffff163373ffffffffffffffffffffffffffffffffffffffff1614610547576040517f08c379a000000000000000000000000000000000000000000000000000000000815260040161053e90610aba565b60405180910390fd5b5f73ffffffffffffffffffffffffffffffffffffffff168173ffffffffffffffffffffffffffffffffffffffff16036105b5576040517f08c379a00000000000000000000000000000000000000000000000000000000081526004016105ac90610bcb565b60405180910390fd5b60015f9054906101000a900473ffffffffffffffffffffffffffffffffffffffff1673ffffffffffffffffffffffffffffffffffffffff168173ffffffffffffffffffffffffffffffffffffffff1603610644576040517f08c379a000000000000000000000000000000000000000000000000000000000815260040161063b90610c59565b60405180910390fd5b5f60015f9054906101000a900473ffffffffffffffffffffffffffffffffffffffff1690508160015f6101000a81548173ffffffffffffffffffffffffffffffffffffffff021916908373ffffffffffffffffffffffffffffffffffffffff1602179055508173ffffffffffffffffffffffffffffffffffffffff168173ffffffffffffffffffffffffffffffffffffffff167ff8ccb027dfcd135e000e9d45e6cc2d662578a8825d4c45b5e32e0adf67e79ec660405160405180910390a35050565b60028160038110610716575f80fd5b015f915054906101000a900473ffffffffffffffffffffffffffffffffffffffff1681565b66038d7ea4c680003411610784576040517f08c379a000000000000000000000000000000000000000000000000000000000815260040161077b9061082d565b60405180910390fd5b61078c610218565b565b66038d7ea4c6800081565b5f602052805f5260405f205f915090505481565b5f82825260208201905092915050565b7f4465706f736974206d7573742062652067726561746572207468616e20302e305f8201527f3031206574686572000000000000000000000000000000000000000000000000602082015250565b5f6108176028836107ad565b9150610822826107bd565b604082019050919050565b5f6020820190508181035f8301526108448161080b565b9050919050565b5f819050919050565b61085d8161084b565b82525050565b5f6020820190506108765f830184610854565b92915050565b5f73ffffffffffffffffffffffffffffffffffffffff82169050919050565b5f6108a58261087c565b9050919050565b6108b58161089b565b82525050565b5f6020820190506108ce5f8301846108ac565b92915050565b5f5ffd5b6108e18161089b565b81146108eb575f5ffd5b50565b5f813590506108fc816108d8565b92915050565b5f60208284031215610917576109166108d4565b5b5f610924848285016108ee565b91505092915050565b6109368161084b565b8114610940575f5ffd5b50565b5f813590506109518161092d565b92915050565b5f6020828403121561096c5761096b6108d4565b5b5f61097984828501610943565b91505092915050565b7f4465706f73697420616d6f756e74206d7573742067726561746572207468616e5f8201527f2030000000000000000000000000000000000000000000000000000000000000602082015250565b5f6109dc6022836107ad565b91506109e782610982565b604082019050919050565b5f6020820190508181035f830152610a09816109d0565b9050919050565b7f4e487b71000000000000000000000000000000000000000000000000000000005f52601160045260245ffd5b5f610a478261084b565b9150610a528361084b565b9250828201905080821115610a6a57610a69610a10565b5b92915050565b7f596f7520617265206e6f7420746865206f776e657200000000000000000000005f82015250565b5f610aa46015836107ad565b9150610aaf82610a70565b602082019050919050565b5f6020820190508181035f830152610ad181610a98565b9050919050565b5f81905092915050565b50565b5f610af05f83610ad8565b9150610afb82610ae2565b5f82019050919050565b5f610b0f82610ae5565b9150819050919050565b7f5769746864726177206661696c656400000000000000000000000000000000005f82015250565b5f610b4d600f836107ad565b9150610b5882610b19565b602082019050919050565b5f6020820190508181035f830152610b7a81610b41565b9050919050565b7f4e65772061646d696e2063616e6e6f74206265207a65726f20616464726573735f82015250565b5f610bb56020836107ad565b9150610bc082610b81565b602082019050919050565b5f6020820190508181035f830152610be281610ba9565b9050919050565b7f4e65772061646d696e2063616e6e6f742062652063757272656e742061646d695f8201527f6e00000000000000000000000000000000000000000000000000000000000000602082015250565b5f610c436021836107ad565b9150610c4e82610be9565b604082019050919050565b5f6020820190508181035f830152610c7081610c37565b905091905056fea26469706673582212207d528e42314bf19a927b7b9babd7c04ba1e1bdc6f6b63678b3b124c04b9909c564736f6c634300081e0033","linkReferences":{}},"methodIdentifiers":{"MIN_DEPOSIT()":"e1e158a5","deposit()":"d0e30db0","depositors(address)":"eed75f6d","getAdmin()":"6e9960c3","getBalance()":"12065fe0","top3Depositors(uint256)":"d0e25467","transferAdmin(address)":"75829def","withdraw()":"3ccfd60b"},"id":1}